{
    "contractName": "Multicall",
    "abi": [
        {
            "inputs": [
                {
                    "internalType": "address",
                    "name": "_executor",
                    "type": "address"
                },
                {
                    "internalType": "contract IPoolAddressesProvider",
                    "name": "_poolAddressesProvider",
                    "type": "address"
                },
                {
                    "internalType": "address",
                    "name": "_WETH",
                    "type": "address"
                },
                {
                    "internalType": "address",
                    "name": "_v3Factory",
                    "type": "address"
                }
            ],
            "stateMutability": "payable",
            "type": "constructor"
        },
        {
            "inputs": [],
            "name": "ADDRESSES_PROVIDER",
            "outputs": [
                {
                    "internalType": "contract IPoolAddressesProvider",
                    "name": "",
                    "type": "address"
                }
            ],
            "stateMutability": "view",
            "type": "function"
        },
        {
            "inputs": [
                {
                    "internalType": "address payable",
                    "name": "_to",
                    "type": "address"
                },
                {
                    "internalType": "uint256",
                    "name": "_value",
                    "type": "uint256"
                },
                {
                    "internalType": "bytes",
                    "name": "_data",
                    "type": "bytes"
                }
            ],
            "name": "call",
            "outputs": [
                {
                    "internalType": "bytes",
                    "name": "",
                    "type": "bytes"
                }
            ],
            "stateMutability": "payable",
            "type": "function"
        },
        {
            "inputs": [
                {
                    "internalType": "address[]",
                    "name": "assets",
                    "type": "address[]"
                },
                {
                    "internalType": "uint256[]",
                    "name": "amounts",
                    "type": "uint256[]"
                },
                {
                    "internalType": "uint256[]",
                    "name": "premiums",
                    "type": "uint256[]"
                },
                {
                    "internalType": "address",
                    "name": "initiator",
                    "type": "address"
                },
                {
                    "internalType": "bytes",
                    "name": "params",
                    "type": "bytes"
                }
            ],
            "name": "executeOperation",
            "outputs": [
                {
                    "internalType": "bool",
                    "name": "",
                    "type": "bool"
                }
            ],
            "stateMutability": "nonpayable",
            "type": "function"
        },
        {
            "inputs": [],
            "name": "killswitch",
            "outputs": [],
            "stateMutability": "nonpayable",
            "type": "function"
        },
        {
            "inputs": [
                {
                    "internalType": "uint256",
                    "name": "_wethInputAmount",
                    "type": "uint256"
                },
                {
                    "internalType": "uint256",
                    "name": "_ethAmountToCoinbase",
                    "type": "uint256"
                },
                {
                    "internalType": "uint8[]",
                    "name": "_types",
                    "type": "uint8[]"
                },
                {
                    "internalType": "bytes[]",
                    "name": "_swaps",
                    "type": "bytes[]"
                }
            ],
            "name": "multicall",
            "outputs": [
                {
                    "internalType": "bool",
                    "name": "",
                    "type": "bool"
                }
            ],
            "stateMutability": "nonpayable",
            "type": "function"
        },
        {
            "inputs": [
                {
                    "internalType": "int256",
                    "name": "amount0Delta",
                    "type": "int256"
                },
                {
                    "internalType": "int256",
                    "name": "amount1Delta",
                    "type": "int256"
                },
                {
                    "internalType": "bytes",
                    "name": "_data",
                    "type": "bytes"
                }
            ],
            "name": "uniswapV3SwapCallback",
            "outputs": [],
            "stateMutability": "nonpayable",
            "type": "function"
        },
        {
            "stateMutability": "payable",
            "type": "receive"
        }
    ],
    "bytecode": "61010060405260405162001a9838038062001a9883398101604081905262000027916200015e565b600080546001600160a01b0319166001600160a01b03851690811790915560408051630261bf8b60e01b81529051859291630261bf8b9160048083019260209291908290030181865afa15801562000083573d6000803e3d6000fd5b505050506040513d601f19601f82011682018060405250810190620000a99190620001c6565b600180546001600160a01b0319166001600160a01b039283161790553360a05283811660805285811660c052821660e0525034156200013b576080516001600160a01b031663d0e30db0346040518263ffffffff1660e01b81526004016000604051808303818588803b1580156200012057600080fd5b505af115801562000135573d6000803e3d6000fd5b50505050505b50505050620001ed565b6001600160a01b03811681146200015b57600080fd5b50565b600080600080608085870312156200017557600080fd5b8451620001828162000145565b6020860151909450620001958162000145565b6040860151909350620001a88162000145565b6060860151909250620001bb8162000145565b939692955090935050565b600060208284031215620001d957600080fd5b8151620001e68162000145565b9392505050565b60805160a05160c05160e05161184a6200024e6000396000610b790152600050506000818161014401528181610170015281816101a7015261061001526000818161028c0152818161049d0152818161057e01526106a4015261184a6000f3fe6080604052600436106100595760003560e01c80630542975c1461006557806342dd96f7146100925780636dbf2fa0146100a9578063920f5c84146100c9578063e72f7cc8146100f9578063fa461e331461011957600080fd5b3661006057005b600080fd5b34801561007157600080fd5b506000546040516001600160a01b0390911681526020015b60405180910390f35b34801561009e57600080fd5b506100a7610139565b005b6100bc6100b7366004610dcd565b61019a565b6040516100899190610e76565b3480156100d557600080fd5b506100e96100e4366004610ed5565b61025d565b6040519015158152602001610089565b34801561010557600080fd5b506100e9610114366004610fb0565b610603565b34801561012557600080fd5b506100a7610134366004611033565b610805565b336001600160a01b037f0000000000000000000000000000000000000000000000000000000000000000161461016e57600080fd5b7f00000000000000000000000000000000000000000000000000000000000000006001600160a01b0316ff5b6060336001600160a01b037f000000000000000000000000000000000000000000000000000000000000000016146101d157600080fd5b6001600160a01b0385166101e457600080fd5b600080866001600160a01b031686868660405161020292919061106e565b60006040518083038185875af1925050503d806000811461023f576040519150601f19603f3d011682016040523d82523d6000602084013e610244565b606091505b50915091508161025357600080fd5b9695505050505050565b60006001600160a01b038416301461027457600080fd5b6040516370a0823160e01b81523060048201526000907f00000000000000000000000000000000000000000000000000000000000000006001600160a01b0316906370a0823190602401602060405180830381865afa1580156102db573d6000803e3d6000fd5b505050506040513d601f19601f820116820180604052508101906102ff919061107e565b905060008061031085870187611201565b9150915080518251146103615760405162461bcd60e51b81526020600482015260146024820152730d8cadccee8d0e640c8de40dcdee840dac2e8c6d60631b60448201526064015b60405180910390fd5b60008b8b6000818110610376576103766112c1565b90506020020135905060005b83518110156104845783818151811061039d5761039d6112c1565b602002602001015160ff166002036103fe5760008060008584815181106103c6576103c66112c1565b60200260200101518060200190518101906103e191906112d7565b935093509350506103f4858484846108e4565b9450505050610472565b838181518110610410576104106112c1565b602002602001015160ff166003036104725760008060008086858151811061043a5761043a6112c1565b6020026020010151806020019051810190610455919061133d565b94509450945094505061046b8685858585610a25565b9550505050505b8061047c816113be565b915050610382565b506040516370a0823160e01b81523060048201526000907f00000000000000000000000000000000000000000000000000000000000000006001600160a01b0316906370a0823190602401602060405180830381865afa1580156104ec573d6000803e3d6000fd5b505050506040513d601f19601f82011682018060405250810190610510919061107e565b905060008b8b6000818110610527576105276112c1565b905060200201358e8e6000818110610541576105416112c1565b9050602002013561055291906113d7565b60015460405163095ea7b360e01b81526001600160a01b039182166004820152602481018390529192507f0000000000000000000000000000000000000000000000000000000000000000169063095ea7b3906044016020604051808303816000875af11580156105c7573d6000803e3d6000fd5b505050506040513d601f19601f820116820180604052508101906105eb91906113fd565b50600196505050505050509998505050505050505050565b6000336001600160a01b037f0000000000000000000000000000000000000000000000000000000000000000161461063a57600080fd5b60408051600180825281830190925260009160208083019080368337505060408051600180825281830190925292935060009291506020808301908036833750506040805160018082528183019092529293506000929150602080830190803683370190505090507f0000000000000000000000000000000000000000000000000000000000000000836000815181106106d6576106d66112c1565b60200260200101906001600160a01b031690816001600160a01b031681525050898260008151811061070a5761070a6112c1565b60200260200101818152505060008160008151811061072b5761072b6112c1565b6020026020010181815250506000888888886040516020016107509493929190611443565b60408051601f198184030181529082905260015463ab9c4b5d60e01b83529092506001600160a01b03169063ab9c4b5d9061079c90309088908890889084908990600090600401611559565b600060405180830381600087803b1580156107b657600080fd5b505af11580156107ca573d6000803e3d6000fd5b505060405162461bcd60e51b815260206004820152600a602482015269666c207375636365737360b01b604482015260640191506103589050565b600080808061081685870187611615565b93509350935093506000808261082d578486610830565b85855b9150915061083f828286610b4c565b6000856001600160a01b0316876001600160a01b0316106108605789610862565b8a5b60405163a9059cbb60e01b8152336004820152602481018290529091506001600160a01b0388169063a9059cbb906044016020604051808303816000875af11580156108b2573d6000803e3d6000fd5b505050506040513d601f19601f820116820180604052508101906108d691906113fd565b505050505050505050505050565b60006109058583856001600160a01b0316876001600160a01b031610610c85565b60405163a9059cbb60e01b81526001600160a01b038481166004830152602482018890529192509085169063a9059cbb906044016020604051808303816000875af1158015610958573d6000803e3d6000fd5b505050506040513d601f19601f8201168201806040525081019061097c91906113fd565b50600080846001600160a01b0316866001600160a01b0316106109a1578260006109a5565b6000835b6040805160008152602081019182905263022c0d9f60e01b90915291935091506001600160a01b0385169063022c0d9f906109e99085908590309060248101611666565b600060405180830381600087803b158015610a0357600080fd5b505af1158015610a17573d6000803e3d6000fd5b505050505050949350505050565b604080516001600160a01b038681166020830181905290861692820183905262ffffff851660608301529190911060808201819052600091829060a0016040516020818303038152906040529050600080856001600160a01b031663128acb0830868d88610ab157610aac600173fffd8963efd1fc6a506488495d951d5263988d26611693565b610ac1565b610ac16401000276a360016116bb565b886040518663ffffffff1660e01b8152600401610ae29594939291906116e6565b60408051808303816000875af1158015610b00573d6000803e3d6000fd5b505050506040513d601f19601f82011682018060405250810190610b24919061172c565b9150915083610b335781610b35565b805b610b3e90611750565b9a9950505050505050505050565b604080516001600160a01b03808616602083015284169181019190915262ffffff821660608201526000907f00000000000000000000000000000000000000000000000000000000000000009060800160408051601f19818403018152908290528051602091820120610c17939290917fe34f199b19b2b4f47f68442619d555527d244f78a3297ea89325f843f87b8b5491016001600160f81b0319815260609390931b6bffffffffffffffffffffffff191660018401526015830191909152603582015260550190565b60408051601f1981840301815291905280516020909101206001600160a01b03169050338114610c7f5760405162461bcd60e51b81526020600482015260136024820152721b5cd9cb9cd95b99195c881b9bdd081c1bdbdb606a1b6044820152606401610358565b50505050565b6000806000846001600160a01b0316630902f1ac6040518163ffffffff1660e01b8152600401606060405180830381865afa158015610cc8573d6000803e3d6000fd5b505050506040513d601f19601f82011682018060405250810190610cec9190611783565b506001600160701b031691506001600160701b0316915060008085610d12578284610d15565b83835b90925090506000610d28896103e56117d3565b90506000610d3683836117d3565b9050600082610d47866103e86117d3565b610d5191906113d7565b9050610d5d81836117f2565b9b9a5050505050505050505050565b6001600160a01b0381168114610d8157600080fd5b50565b60008083601f840112610d9657600080fd5b50813567ffffffffffffffff811115610dae57600080fd5b602083019150836020828501011115610dc657600080fd5b9250929050565b60008060008060608587031215610de357600080fd5b8435610dee81610d6c565b935060208501359250604085013567ffffffffffffffff811115610e1157600080fd5b610e1d87828801610d84565b95989497509550505050565b6000815180845260005b81811015610e4f57602081850181015186830182015201610e33565b81811115610e61576000602083870101525b50601f01601f19169290920160200192915050565b602081526000610e896020830184610e29565b9392505050565b60008083601f840112610ea257600080fd5b50813567ffffffffffffffff811115610eba57600080fd5b6020830191508360208260051b8501011115610dc657600080fd5b600080600080600080600080600060a08a8c031215610ef357600080fd5b893567ffffffffffffffff80821115610f0b57600080fd5b610f178d838e01610e90565b909b50995060208c0135915080821115610f3057600080fd5b610f3c8d838e01610e90565b909950975060408c0135915080821115610f5557600080fd5b610f618d838e01610e90565b909750955060608c01359150610f7682610d6c565b90935060808b01359080821115610f8c57600080fd5b50610f998c828d01610d84565b915080935050809150509295985092959850929598565b60008060008060008060808789031215610fc957600080fd5b8635955060208701359450604087013567ffffffffffffffff80821115610fef57600080fd5b610ffb8a838b01610e90565b9096509450606089013591508082111561101457600080fd5b5061102189828a01610e90565b979a9699509497509295939492505050565b6000806000806060858703121561104957600080fd5b8435935060208501359250604085013567ffffffffffffffff811115610e1157600080fd5b8183823760009101908152919050565b60006020828403121561109057600080fd5b5051919050565b634e487b7160e01b600052604160045260246000fd5b604051601f8201601f1916810167ffffffffffffffff811182821017156110d6576110d6611097565b604052919050565b600067ffffffffffffffff8211156110f8576110f8611097565b5060051b60200190565b803560ff8116811461111357600080fd5b919050565b6000601f838184011261112a57600080fd5b8235602061113f61113a836110de565b6110ad565b82815260059290921b8501810191818101908784111561115e57600080fd5b8287015b848110156111f557803567ffffffffffffffff808211156111835760008081fd5b818a0191508a603f8301126111985760008081fd5b858201356040828211156111ae576111ae611097565b6111bf828b01601f191689016110ad565b92508183528c818386010111156111d65760008081fd5b8181850189850137506000908201870152845250918301918301611162565b50979650505050505050565b6000806040838503121561121457600080fd5b823567ffffffffffffffff8082111561122c57600080fd5b818501915085601f83011261124057600080fd5b8135602061125061113a836110de565b82815260059290921b8401810191818101908984111561126f57600080fd5b948201945b838610156112945761128586611102565b82529482019490820190611274565b965050860135925050808211156112aa57600080fd5b506112b785828601611118565b9150509250929050565b634e487b7160e01b600052603260045260246000fd5b600080600080608085870312156112ed57600080fd5b8451935060208501516112ff81610d6c565b604086015190935061131081610d6c565b606086015190925061132181610d6c565b939692955090935050565b62ffffff81168114610d8157600080fd5b600080600080600060a0868803121561135557600080fd5b85519450602086015161136781610d6c565b604087015190945061137881610d6c565b60608701519093506113898161132c565b608087015190925061139a81610d6c565b809150509295509295909350565b634e487b7160e01b600052601160045260246000fd5b6000600182016113d0576113d06113a8565b5060010190565b600082198211156113ea576113ea6113a8565b500190565b8015158114610d8157600080fd5b60006020828403121561140f57600080fd5b8151610e89816113ef565b81835281816020850137506000828201602090810191909152601f909101601f19169091010190565b6040808252810184905260008560608301825b8781101561147e5760ff61146984611102565b16825260209283019290910190600101611456565b506020915083810382850152808582528282019050828660051b8301018760005b8881101561150e57848303601f190184528135368b9003601e190181126114c557600080fd5b8a01803567ffffffffffffffff8111156114de57600080fd5b8036038c13156114ed57600080fd5b6114fa85828a850161141a565b95880195945050509085019060010161149f565b50909a9950505050505050505050565b600081518084526020808501945080840160005b8381101561154e57815187529582019590820190600101611532565b509495945050505050565b6001600160a01b03888116825260e0602080840182905289519184018290526000928a820192909190610100860190855b818110156115a857855185168352948301949183019160010161158a565b505085810360408701526115bc818c61151e565b935050505082810360608401526115d3818861151e565b6001600160a01b0387166080850152905082810360a08401526115f68186610e29565b91505061160960c083018461ffff169052565b98975050505050505050565b6000806000806080858703121561162b57600080fd5b843561163681610d6c565b9350602085013561164681610d6c565b925060408501356116568161132c565b91506060850135611321816113ef565b84815283602082015260018060a01b03831660408201526080606082015260006102536080830184610e29565b60006001600160a01b03838116908316818110156116b3576116b36113a8565b039392505050565b60006001600160a01b038281168482168083038211156116dd576116dd6113a8565b01949350505050565b6001600160a01b0386811682528515156020830152604082018590528316606082015260a06080820181905260009061172190830184610e29565b979650505050505050565b6000806040838503121561173f57600080fd5b505080516020909101519092909150565b6000600160ff1b8201611765576117656113a8565b5060000390565b80516001600160701b038116811461111357600080fd5b60008060006060848603121561179857600080fd5b6117a18461176c565b92506117af6020850161176c565b9150604084015163ffffffff811681146117c857600080fd5b809150509250925092565b60008160001904831182151516156117ed576117ed6113a8565b500290565b60008261180f57634e487b7160e01b600052601260045260246000fd5b50049056fea2646970667358221220dc32191583a9a54452053911a650a45ae728621281fc1ec7b663a30378ba918b64736f6c634300080d0033",
    "sourcePath": "c:/Users/Nico/Documents/Repositories/Blockchain/flashswap-sushi-uni/flashswap-sushi-uni onchain/contracts/Multicall.sol",
    "compiler": {
        "name": "solc",
        "version": "0.8.13+commit.abaa5c0e"
    },
    "functionHashes": {
        "ADDRESSES_PROVIDER()": "0542975c",
        "call(address,uint256,bytes)": "6dbf2fa0",
        "executeOperation(address[],uint256[],uint256[],address,bytes)": "920f5c84",
        "killswitch()": "42dd96f7",
        "multicall(uint256,uint256,uint8[],bytes[])": "e72f7cc8",
        "uniswapV3SwapCallback(int256,int256,bytes)": "fa461e33"
    },
    "gasEstimates": {
        "creation": {
            "codeDepositCost": "1243600",
            "executionCost": "infinite",
            "totalCost": "infinite"
        },
        "external": {
            "ADDRESSES_PROVIDER()": "2268",
            "call(address,uint256,bytes)": "infinite",
            "executeOperation(address[],uint256[],uint256[],address,bytes)": "infinite",
            "killswitch()": "infinite",
            "multicall(uint256,uint256,uint8[],bytes[])": "infinite",
            "uniswapV3SwapCallback(int256,int256,bytes)": "infinite"
        },
        "internal": {
            "exactInputV2(uint256,address,address,contract IV2Pool)": "infinite",
            "exactInputV3(int256,address,address,uint24,contract IV3Pool)": "infinite",
            "v2AmountOut(uint256,contract IV2Pool,bool)": "infinite",
            "validateV3Pool(address,address,uint24)": "infinite"
        }
    }
}